{
  "contractName": "HydroFinance",
  "abi": [
    {
      "constant": true,
      "inputs": [],
      "name": "identityRegistry",
      "outputs": [
        {
          "name": "",
          "type": "address"
        }
      ],
      "payable": false,
      "stateMutability": "view",
      "type": "function"
    },
    {
      "constant": true,
      "inputs": [
        {
          "name": "",
          "type": "uint256"
        }
      ],
      "name": "userByEin",
      "outputs": [
        {
          "name": "einOwner",
          "type": "uint256"
        },
        {
          "name": "owner",
          "type": "address"
        }
      ],
      "payable": false,
      "stateMutability": "view",
      "type": "function"
    },
    {
      "constant": true,
      "inputs": [
        {
          "name": "",
          "type": "uint256"
        }
      ],
      "name": "users",
      "outputs": [
        {
          "name": "einOwner",
          "type": "uint256"
        },
        {
          "name": "owner",
          "type": "address"
        }
      ],
      "payable": false,
      "stateMutability": "view",
      "type": "function"
    },
    {
      "inputs": [
        {
          "name": "_identityRegistry",
          "type": "address"
        }
      ],
      "payable": false,
      "stateMutability": "nonpayable",
      "type": "constructor"
    },
    {
      "constant": false,
      "inputs": [
        {
          "name": "_cardNumber",
          "type": "uint256"
        },
        {
          "name": "_expiry",
          "type": "uint256"
        },
        {
          "name": "_name",
          "type": "string"
        },
        {
          "name": "_cvv",
          "type": "uint256"
        }
      ],
      "name": "addCard",
      "outputs": [
        {
          "name": "",
          "type": "bytes32"
        }
      ],
      "payable": false,
      "stateMutability": "nonpayable",
      "type": "function"
    },
    {
      "constant": false,
      "inputs": [
        {
          "name": "_bankNumber",
          "type": "uint256"
        },
        {
          "name": "_name",
          "type": "string"
        }
      ],
      "name": "addBank",
      "outputs": [
        {
          "name": "",
          "type": "bytes32"
        }
      ],
      "payable": false,
      "stateMutability": "nonpayable",
      "type": "function"
    },
    {
      "constant": false,
      "inputs": [
        {
          "name": "_investmentNumber",
          "type": "uint256"
        },
        {
          "name": "_name",
          "type": "string"
        }
      ],
      "name": "addInvestmentAccount",
      "outputs": [
        {
          "name": "",
          "type": "bytes32"
        }
      ],
      "payable": false,
      "stateMutability": "nonpayable",
      "type": "function"
    },
    {
      "constant": false,
      "inputs": [],
      "name": "removeAccount",
      "outputs": [],
      "payable": false,
      "stateMutability": "nonpayable",
      "type": "function"
    },
    {
      "constant": true,
      "inputs": [
        {
          "name": "_encryptedCard",
          "type": "bytes32"
        },
        {
          "name": "_name",
          "type": "string"
        },
        {
          "name": "_cardNumber",
          "type": "uint256"
        },
        {
          "name": "_expiry",
          "type": "uint256"
        },
        {
          "name": "_cvv",
          "type": "uint256"
        }
      ],
      "name": "checkCard",
      "outputs": [
        {
          "name": "",
          "type": "bool"
        }
      ],
      "payable": false,
      "stateMutability": "view",
      "type": "function"
    },
    {
      "constant": true,
      "inputs": [
        {
          "name": "_encryptedBank",
          "type": "bytes32"
        },
        {
          "name": "_name",
          "type": "string"
        },
        {
          "name": "_bankNumber",
          "type": "uint256"
        }
      ],
      "name": "checkBank",
      "outputs": [
        {
          "name": "",
          "type": "bool"
        }
      ],
      "payable": false,
      "stateMutability": "view",
      "type": "function"
    },
    {
      "constant": true,
      "inputs": [
        {
          "name": "_encryptedInvestment",
          "type": "bytes32"
        },
        {
          "name": "_investmentNumber",
          "type": "uint256"
        },
        {
          "name": "_name",
          "type": "string"
        }
      ],
      "name": "checkInvestment",
      "outputs": [
        {
          "name": "",
          "type": "bool"
        }
      ],
      "payable": false,
      "stateMutability": "view",
      "type": "function"
    },
    {
      "constant": true,
      "inputs": [],
      "name": "getUserData",
      "outputs": [
        {
          "name": "",
          "type": "uint256"
        },
        {
          "name": "",
          "type": "address"
        },
        {
          "name": "",
          "type": "bytes32[]"
        },
        {
          "name": "",
          "type": "bytes32[]"
        },
        {
          "name": "",
          "type": "bytes32[]"
        }
      ],
      "payable": false,
      "stateMutability": "view",
      "type": "function"
    }
  ],
  "bytecode": "0x608060405234801561001057600080fd5b5060405160208061260d8339810180604052602081101561003057600080fd5b8101908080519060200190929190505050600073ffffffffffffffffffffffffffffffffffffffff168173ffffffffffffffffffffffffffffffffffffffff16141515156100c9576040517f08c379a000000000000000000000000000000000000000000000000000000000815260040180806020018281038252603d8152602001806125d0603d913960400191505060405180910390fd5b80600260006101000a81548173ffffffffffffffffffffffffffffffffffffffff021916908373ffffffffffffffffffffffffffffffffffffffff160217905550506124b68061011a6000396000f3fe608060405234801561001057600080fd5b50600436106100c6576000357c010000000000000000000000000000000000000000000000000000000090048063365b98b21161008e578063365b98b21461049557806375beca081461050a57806385675cd81461051457806389eacd1c146105ed578063d35d0942146106d4578063f6cbae7e146107ad576100c6565b8063134e18f4146100cb5780631e753d2e146101155780631f8d764f1461021057806322e8c87d146102f75780632f30779f14610420575b600080fd5b6100d361089a565b604051808273ffffffffffffffffffffffffffffffffffffffff1673ffffffffffffffffffffffffffffffffffffffff16815260200191505060405180910390f35b6101f6600480360360a081101561012b57600080fd5b81019080803590602001909291908035906020019064010000000081111561015257600080fd5b82018360208201111561016457600080fd5b8035906020019184600183028401116401000000008311171561018657600080fd5b91908080601f016020809104026020016040519081016040528093929190818152602001838380828437600081840152601f19601f8201169050808301925050505050505091929192908035906020019092919080359060200190929190803590602001909291905050506108c0565b604051808215151515815260200191505060405180910390f35b6102dd6004803603606081101561022657600080fd5b81019080803590602001909291908035906020019064010000000081111561024d57600080fd5b82018360208201111561025f57600080fd5b8035906020019184600183028401116401000000008311171561028157600080fd5b91908080601f016020809104026020016040519081016040528093929190818152602001838380828437600081840152601f19601f82011690508083019250505050505050919291929080359060200190929190505050610a76565b604051808215151515815260200191505060405180910390f35b6102ff610c1a565b604051808681526020018573ffffffffffffffffffffffffffffffffffffffff1673ffffffffffffffffffffffffffffffffffffffff168152602001806020018060200180602001848103845287818151815260200191508051906020019060200280838360005b83811015610382578082015181840152602081019050610367565b50505050905001848103835286818151815260200191508051906020019060200280838360005b838110156103c45780820151818401526020810190506103a9565b50505050905001848103825285818151815260200191508051906020019060200280838360005b838110156104065780820151818401526020810190506103eb565b505050509050019850505050505050505060405180910390f35b61044c6004803603602081101561043657600080fd5b8101908080359060200190929190505050610ee1565b604051808381526020018273ffffffffffffffffffffffffffffffffffffffff1673ffffffffffffffffffffffffffffffffffffffff1681526020019250505060405180910390f35b6104c1600480360360208110156104ab57600080fd5b8101908080359060200190929190505050610f25565b604051808381526020018273ffffffffffffffffffffffffffffffffffffffff1673ffffffffffffffffffffffffffffffffffffffff1681526020019250505060405180910390f35b610512610f78565b005b6105d76004803603604081101561052a57600080fd5b81019080803590602001909291908035906020019064010000000081111561055157600080fd5b82018360208201111561056357600080fd5b8035906020019184600183028401116401000000008311171561058557600080fd5b91908080601f016020809104026020016040519081016040528093929190818152602001838380828437600081840152601f19601f820116905080830192505050505050509192919290505050611423565b6040518082815260200191505060405180910390f35b6106ba6004803603606081101561060357600080fd5b8101908080359060200190929190803590602001909291908035906020019064010000000081111561063457600080fd5b82018360208201111561064657600080fd5b8035906020019184600183028401116401000000008311171561066857600080fd5b91908080601f016020809104026020016040519081016040528093929190818152602001838380828437600081840152601f19601f8201169050808301925050505050505091929192905050506116eb565b604051808215151515815260200191505060405180910390f35b610797600480360360408110156106ea57600080fd5b81019080803590602001909291908035906020019064010000000081111561071157600080fd5b82018360208201111561072357600080fd5b8035906020019184600183028401116401000000008311171561074557600080fd5b91908080601f016020809104026020016040519081016040528093929190818152602001838380828437600081840152601f19601f82011690508083019250505050505050919291929050505061188f565b6040518082815260200191505060405180910390f35b610884600480360360808110156107c357600080fd5b810190808035906020019092919080359060200190929190803590602001906401000000008111156107f457600080fd5b82018360208201111561080657600080fd5b8035906020019184600183028401116401000000008311171561082857600080fd5b91908080601f016020809104026020016040519081016040528093929190818152602001838380828437600081840152601f19601f82011690508083019250505050505050919291929080359060200190929190505050611b1d565b6040518082815260200191505060405180910390f35b600260009054906101000a900473ffffffffffffffffffffffffffffffffffffffff1681565b600080600260009054906101000a900473ffffffffffffffffffffffffffffffffffffffff1673ffffffffffffffffffffffffffffffffffffffff166305c62c2f336040518263ffffffff167c0100000000000000000000000000000000000000000000000000000000028152600401808273ffffffffffffffffffffffffffffffffffffffff1673ffffffffffffffffffffffffffffffffffffffff16815260200191505060206040518083038186803b15801561097e57600080fd5b505afa158015610992573d6000803e3d6000fd5b505050506040513d60208110156109a857600080fd5b81019080805190602001909291905050509050600081878787876040516020018086815260200185805190602001908083835b602083101515610a0057805182526020820191506020810190506020830392506109db565b6001836020036101000a0380198251168184511680821785525050505050509050018481526020018381526020018281526020019550505050505060405160208183030381529060405280519060200120905080881415610a6657600192505050610a6d565b6000925050505b95945050505050565b600080600260009054906101000a900473ffffffffffffffffffffffffffffffffffffffff1673ffffffffffffffffffffffffffffffffffffffff166305c62c2f336040518263ffffffff167c0100000000000000000000000000000000000000000000000000000000028152600401808273ffffffffffffffffffffffffffffffffffffffff1673ffffffffffffffffffffffffffffffffffffffff16815260200191505060206040518083038186803b158015610b3457600080fd5b505afa158015610b48573d6000803e3d6000fd5b505050506040513d6020811015610b5e57600080fd5b8101908080519060200190929190505050905060008184866040516020018084815260200183815260200182805190602001908083835b602083101515610bba5780518252602082019150602081019050602083039250610b95565b6001836020036101000a038019825116818451168082178552505050505050905001935050505060405160208183030381529060405280519060200120905080861415610c0c57600192505050610c13565b6000925050505b9392505050565b60008060608060606000600260009054906101000a900473ffffffffffffffffffffffffffffffffffffffff1673ffffffffffffffffffffffffffffffffffffffff166305c62c2f336040518263ffffffff167c0100000000000000000000000000000000000000000000000000000000028152600401808273ffffffffffffffffffffffffffffffffffffffff1673ffffffffffffffffffffffffffffffffffffffff16815260200191505060206040518083038186803b158015610cdf57600080fd5b505afa158015610cf3573d6000803e3d6000fd5b505050506040513d6020811015610d0957600080fd5b81019080805190602001909291905050509050610d2461224a565b60008083815260200190815260200160002060a06040519081016040529081600082015481526020016001820160009054906101000a900473ffffffffffffffffffffffffffffffffffffffff1673ffffffffffffffffffffffffffffffffffffffff1673ffffffffffffffffffffffffffffffffffffffff16815260200160028201805480602002602001604051908101604052809291908181526020018280548015610df157602002820191906000526020600020905b815481526020019060010190808311610ddd575b5050505050815260200160038201805480602002602001604051908101604052809291908181526020018280548015610e4957602002820191906000526020600020905b815481526020019060010190808311610e35575b5050505050815260200160048201805480602002602001604051908101604052809291908181526020018280548015610ea157602002820191906000526020600020905b815481526020019060010190808311610e8d575b5050505050815250509050806000015181602001518260400151836060015184608001518292508191508090509650965096509650965050509091929394565b60006020528060005260406000206000915090508060000154908060010160009054906101000a900473ffffffffffffffffffffffffffffffffffffffff16905082565b600181815481101515610f3457fe5b90600052602060002090600502016000915090508060000154908060010160009054906101000a900473ffffffffffffffffffffffffffffffffffffffff16905082565b6000600260009054906101000a900473ffffffffffffffffffffffffffffffffffffffff1673ffffffffffffffffffffffffffffffffffffffff166305c62c2f336040518263ffffffff167c0100000000000000000000000000000000000000000000000000000000028152600401808273ffffffffffffffffffffffffffffffffffffffff1673ffffffffffffffffffffffffffffffffffffffff16815260200191505060206040518083038186803b15801561103557600080fd5b505afa158015611049573d6000803e3d6000fd5b505050506040513d602081101561105f57600080fd5b8101908080519060200190929190505050905080600080838152602001908152602001600020600001541415156110e1576040517f08c379a00000000000000000000000000000000000000000000000000000000081526004018080602001828103825260388152602001806123d46038913960400191505060405180910390fd5b6000808281526020019081526020016000206000808201600090556001820160006101000a81549073ffffffffffffffffffffffffffffffffffffffff02191690556002820160006111339190612290565b6003820160006111439190612290565b6004820160006111539190612290565b505060008090505b60018054905081101561141f578160018281548110151561117857fe5b90600052602060002090600502016000015414156114125761119861224a565b6001808080549050038154811015156111ad57fe5b906000526020600020906005020160a06040519081016040529081600082015481526020016001820160009054906101000a900473ffffffffffffffffffffffffffffffffffffffff1673ffffffffffffffffffffffffffffffffffffffff1673ffffffffffffffffffffffffffffffffffffffff1681526020016002820180548060200260200160405190810160405280929190818152602001828054801561127657602002820191906000526020600020905b815481526020019060010190808311611262575b50505050508152602001600382018054806020026020016040519081016040528092919081815260200182805480156112ce57602002820191906000526020600020905b8154815260200190600101908083116112ba575b505050505081526020016004820180548060200260200160405190810160405280929190818152602001828054801561132657602002820191906000526020600020905b815481526020019060010190808311611312575b50505050508152505090508060018381548110151561134157fe5b90600052602060002090600502016000820151816000015560208201518160010160006101000a81548173ffffffffffffffffffffffffffffffffffffffff021916908373ffffffffffffffffffffffffffffffffffffffff16021790555060408201518160020190805190602001906113bc9291906122b1565b5060608201518160030190805190602001906113d99291906122b1565b5060808201518160040190805190602001906113f69291906122b1565b50905050600180548091906001900361140f91906122fe565b50505b808060010191505061115b565b5050565b600080831415151561149d576040517f08c379a000000000000000000000000000000000000000000000000000000000815260040180806020018281038252601b8152602001807f5468652062616e6b206e756d626572206d75737420626520736574000000000081525060200191505060405180910390fd5b6000825114151515611517576040517f08c379a00000000000000000000000000000000000000000000000000000000081526004018080602001828103825260198152602001807f5468652062616e6b206e616d65206d757374206265207365740000000000000081525060200191505060405180910390fd5b61151f611ecc565b6000600260009054906101000a900473ffffffffffffffffffffffffffffffffffffffff1673ffffffffffffffffffffffffffffffffffffffff166305c62c2f336040518263ffffffff167c0100000000000000000000000000000000000000000000000000000000028152600401808273ffffffffffffffffffffffffffffffffffffffff1673ffffffffffffffffffffffffffffffffffffffff16815260200191505060206040518083038186803b1580156115dc57600080fd5b505afa1580156115f0573d6000803e3d6000fd5b505050506040513d602081101561160657600080fd5b8101908080519060200190929190505050905060008185856040516020018084815260200183815260200182805190602001908083835b602083101515611662578051825260208201915060208101905060208303925061163d565b6001836020036101000a0380198251168184511680821785525050505050509050019350505050604051602081830303815290604052805190602001209050600080838152602001908152602001600020600301819080600181540180825580915050906001820390600052602060002001600090919290919091505550809250505092915050565b600080600260009054906101000a900473ffffffffffffffffffffffffffffffffffffffff1673ffffffffffffffffffffffffffffffffffffffff166305c62c2f336040518263ffffffff167c0100000000000000000000000000000000000000000000000000000000028152600401808273ffffffffffffffffffffffffffffffffffffffff1673ffffffffffffffffffffffffffffffffffffffff16815260200191505060206040518083038186803b1580156117a957600080fd5b505afa1580156117bd573d6000803e3d6000fd5b505050506040513d60208110156117d357600080fd5b8101908080519060200190929190505050905060008185856040516020018084815260200183815260200182805190602001908083835b60208310151561182f578051825260208201915060208101905060208303925061180a565b6001836020036101000a03801982511681845116808217855250505050505090500193505050506040516020818303038152906040528051906020012090508086141561188157600192505050611888565b6000925050505b9392505050565b60008083141515156118ec576040517f08c379a000000000000000000000000000000000000000000000000000000000815260040180806020018281038252602981526020018061240c6029913960400191505060405180910390fd5b6000825114151515611949576040517f08c379a000000000000000000000000000000000000000000000000000000000815260040180806020018281038252602e815260200180612435602e913960400191505060405180910390fd5b611951611ecc565b6000600260009054906101000a900473ffffffffffffffffffffffffffffffffffffffff1673ffffffffffffffffffffffffffffffffffffffff166305c62c2f336040518263ffffffff167c0100000000000000000000000000000000000000000000000000000000028152600401808273ffffffffffffffffffffffffffffffffffffffff1673ffffffffffffffffffffffffffffffffffffffff16815260200191505060206040518083038186803b158015611a0e57600080fd5b505afa158015611a22573d6000803e3d6000fd5b505050506040513d6020811015611a3857600080fd5b8101908080519060200190929190505050905060008185856040516020018084815260200183815260200182805190602001908083835b602083101515611a945780518252602082019150602081019050602083039250611a6f565b6001836020036101000a0380198251168184511680821785525050505050509050019350505050604051602081830303815290604052805190602001209050600080838152602001908152602001600020600401819080600181540180825580915050906001820390600052602060002001600090919290919091505550809250505092915050565b6000808514151515611b97576040517f08c379a000000000000000000000000000000000000000000000000000000000815260040180806020018281038252601f8152602001807f5468652063617264206e756d6265722063616e6e6f7420626520656d7074790081525060200191505060405180910390fd5b60008414151515611bf3576040517f08c379a00000000000000000000000000000000000000000000000000000000081526004018080602001828103825260288152602001806124636028913960400191505060405180910390fd5b6000835114151515611c6d576040517f08c379a00000000000000000000000000000000000000000000000000000000081526004018080602001828103825260198152602001807f5468652063617264206e616d65206d757374206265207365740000000000000081525060200191505060405180910390fd5b60008214151515611ce6576040517f08c379a00000000000000000000000000000000000000000000000000000000081526004018080602001828103825260178152602001807f546865206376762063616e6e6f7420626520656d70747900000000000000000081525060200191505060405180910390fd5b611cee611ecc565b6000600260009054906101000a900473ffffffffffffffffffffffffffffffffffffffff1673ffffffffffffffffffffffffffffffffffffffff166305c62c2f336040518263ffffffff167c0100000000000000000000000000000000000000000000000000000000028152600401808273ffffffffffffffffffffffffffffffffffffffff1673ffffffffffffffffffffffffffffffffffffffff16815260200191505060206040518083038186803b158015611dab57600080fd5b505afa158015611dbf573d6000803e3d6000fd5b505050506040513d6020811015611dd557600080fd5b81019080805190602001909291905050509050600081858888876040516020018086815260200185805190602001908083835b602083101515611e2d5780518252602082019150602081019050602083039250611e08565b6001836020036101000a038019825116818451168082178552505050505050905001848152602001838152602001828152602001955050505050506040516020818303038152906040528051906020012090506000808381526020019081526020016000206002018190806001815401808255809150509060018203906000526020600020016000909192909190915055508092505050949350505050565b6000600260009054906101000a900473ffffffffffffffffffffffffffffffffffffffff1673ffffffffffffffffffffffffffffffffffffffff166305c62c2f336040518263ffffffff167c0100000000000000000000000000000000000000000000000000000000028152600401808273ffffffffffffffffffffffffffffffffffffffff1673ffffffffffffffffffffffffffffffffffffffff16815260200191505060206040518083038186803b158015611f8957600080fd5b505afa158015611f9d573d6000803e3d6000fd5b505050506040513d6020811015611fb357600080fd5b81019080805190602001909291905050509050600073ffffffffffffffffffffffffffffffffffffffff1660008083815260200190815260200160002060010160009054906101000a900473ffffffffffffffffffffffffffffffffffffffff1673ffffffffffffffffffffffffffffffffffffffff16141561224757606060006040519080825280602002602001820160405280156120625781602001602082028038833980820191505090505b50905061206d61224a565b60a0604051908101604052808481526020013373ffffffffffffffffffffffffffffffffffffffff168152602001838152602001838152602001838152509050600181908060018154018082558091505090600182039060005260206000209060050201600090919290919091506000820151816000015560208201518160010160006101000a81548173ffffffffffffffffffffffffffffffffffffffff021916908373ffffffffffffffffffffffffffffffffffffffff16021790555060408201518160020190805190602001906121489291906122b1565b5060608201518160030190805190602001906121659291906122b1565b5060808201518160040190805190602001906121829291906122b1565b50505050806000808581526020019081526020016000206000820151816000015560208201518160010160006101000a81548173ffffffffffffffffffffffffffffffffffffffff021916908373ffffffffffffffffffffffffffffffffffffffff16021790555060408201518160020190805190602001906122069291906122b1565b5060608201518160030190805190602001906122239291906122b1565b5060808201518160040190805190602001906122409291906122b1565b5090505050505b50565b60a06040519081016040528060008152602001600073ffffffffffffffffffffffffffffffffffffffff1681526020016060815260200160608152602001606081525090565b50805460008255906000526020600020908101906122ae9190612330565b50565b8280548282559060005260206000209081019282156122ed579160200282015b828111156122ec5782518255916020019190600101906122d1565b5b5090506122fa9190612330565b5090565b81548183558181111561232b5760050281600502836000526020600020918201910161232a9190612355565b5b505050565b61235291905b8082111561234e576000816000905550600101612336565b5090565b90565b6123d091905b808211156123cc576000808201600090556001820160006101000a81549073ffffffffffffffffffffffffffffffffffffffff02191690556002820160006123a39190612290565b6003820160006123b39190612290565b6004820160006123c39190612290565b5060050161235b565b5090565b9056fe4f6e6c79207468652045494e206f776e6572206f6620746865206163636f756e742063616e2072656d6f766520746865206163636f756e7454686520696e766573746d656e74206163636f756e74206e756d626572206d75737420626520736574546865206e616d65206f662074686520696e766573746d656e74206163636f756e74206d7573742062652073657454686520636172642065787069726174696f6e20646174652063616e6e6f7420626520656d707479a165627a7a72305820a6311108a8516afadee45431c52f290ec4247b0c1881e7110502d698053e07e000295468652061646472657373206f6620746865206964656e7469747920726567697374727920636f6e74726163742063616e6e6f7420626520656d707479",
  "source": "pragma solidity ^0.5.0;\n\n/// @notice The interface of the identity registry contract\n/// @author Merunas Grincalaitis <merunasgrincalaitis@gmail.com>\ninterface IdentityRegistryInterface {\n    function isSigned(address _address, bytes32 messageHash, uint8 v, bytes32 r, bytes32 s)\n        external pure returns (bool);\n    function identityExists(uint ein) external view returns (bool);\n    function hasIdentity(address _address) external view returns (bool);\n    function getEIN(address _address) external view returns (uint ein);\n    function isAssociatedAddressFor(uint ein, address _address) external view returns (bool);\n    function isProviderFor(uint ein, address provider) external view returns (bool);\n    function isResolverFor(uint ein, address resolver) external view returns (bool);\n    function getIdentity(uint ein) external view returns (\n        address recoveryAddress,\n        address[] memory associatedAddresses, address[] memory providers, address[] memory resolvers\n    );\n    function createIdentity(address recoveryAddress, address[] calldata providers, address[] calldata resolvers)\n        external returns (uint ein);\n    function createIdentityDelegated(\n        address recoveryAddress, address associatedAddress, address[] calldata providers, address[] calldata resolvers,\n        uint8 v, bytes32 r, bytes32 s, uint timestamp\n    ) external returns (uint ein);\n    function addAssociatedAddress(\n        address approvingAddress, address addressToAdd, uint8 v, bytes32 r, bytes32 s, uint timestamp\n    ) external;\n    function addAssociatedAddressDelegated(\n        address approvingAddress, address addressToAdd,\n        uint8[2] calldata v, bytes32[2] calldata r, bytes32[2] calldata s, uint[2] calldata timestamp\n    ) external;\n    function removeAssociatedAddress() external;\n    function removeAssociatedAddressDelegated(address addressToRemove, uint8 v, bytes32 r, bytes32 s, uint timestamp)\n        external;\n    function addProviders(address[] calldata providers) external;\n    function addProvidersFor(uint ein, address[] calldata providers) external;\n    function removeProviders(address[] calldata providers) external;\n    function removeProvidersFor(uint ein, address[] calldata providers) external;\n    function addResolvers(address[] calldata resolvers) external;\n    function addResolversFor(uint ein, address[] calldata resolvers) external;\n    function removeResolvers(address[] calldata resolvers) external;\n    function removeResolversFor(uint ein, address[] calldata resolvers) external;\n    function triggerRecoveryAddressChange(address newRecoveryAddress) external;\n    function triggerRecoveryAddressChangeFor(uint ein, address newRecoveryAddress) external;\n    function triggerRecovery(uint ein, address newAssociatedAddress, uint8 v, bytes32 r, bytes32 s, uint timestamp)\n        external;\n    function triggerDestruction(\n        uint ein, address[] calldata firstChunk, address[] calldata lastChunk, bool resetResolvers\n    ) external;\n}\n\n\n/// @notice The Hydrogen Finance contract for managing financial accounts such as credit cards, banks and invement accounts on-chain using encryption technology\n/// @author Merunas Grincalaitis <merunasgrincalaitis@gmail.com>\ncontract HydroFinance {\n    struct User {\n        uint256 einOwner;\n        address owner;\n        bytes32[] encryptedCards;\n        bytes32[] encryptedBanks;\n        bytes32[] encryptedInvestments;\n    }\n    mapping(uint256 => User) public userByEin;\n    User[] public users;\n    address public identityRegistry;\n\n    /// @notice To setup the address of the identity registry to use for this contract\n    /// @param _identityRegistry The address of the Identity Registry contract\n    constructor(address _identityRegistry) public {\n        require(_identityRegistry != address(0), 'The address of the identity registry contract cannot be empty');\n        identityRegistry = _identityRegistry;\n    }\n\n    /// @notice To add a new credit card to your account. All function will be encrypted the moment the data is added\n    /// @param _cardNumber The number of the credit or debit card to add to your account\n    /// @param _expiry When the card expires in timestamp\n    /// @param _name The name of the card\n    /// @param _cvv The 3 or 4 digit code for verifying the card\n    /// @return bytes32 Returns the encrypted card bytes32\n    function addCard(uint256 _cardNumber, uint256 _expiry, string memory _name, uint256 _cvv) public returns(bytes32) {\n        require(_cardNumber != 0, 'The card number cannot be empty');\n        require(_expiry != 0, 'The card expiration date cannot be empty');\n        require(bytes(_name).length != 0, 'The card name must be set');\n        require(_cvv != 0, 'The cvv cannot be empty');\n\n        checkAndCreateUser();\n        uint256 ein = IdentityRegistryInterface(identityRegistry).getEIN(msg.sender);\n        bytes32 encryptedCard = keccak256(abi.encodePacked(ein, _name, _cardNumber, _expiry, _cvv));\n        userByEin[ein].encryptedCards.push(encryptedCard);\n        return encryptedCard;\n    }\n\n    /// @notice To add a new bank\n    /// @param _bankNumber The number of the bank to add\n    /// @param _name The name of the bank\n    /// @return Returns the encrypted bank bytes32\n    function addBank(uint256 _bankNumber, string memory _name) public returns(bytes32) {\n        require(_bankNumber != 0, 'The bank number must be set');\n        require(bytes(_name).length != 0, 'The bank name must be set');\n\n        checkAndCreateUser();\n        uint256 ein = IdentityRegistryInterface(identityRegistry).getEIN(msg.sender);\n        bytes32 encryptedBank = keccak256(abi.encodePacked(ein, _bankNumber, _name));\n        userByEin[ein].encryptedBanks.push(encryptedBank);\n        return encryptedBank;\n    }\n\n    /// @notice To create an investment account for your user\n    /// @param _investmentNumber The number of the investment account that you want to create\n    /// @param _name The name of the investment account\n    /// @return bytes32 Returns the encrypted investment account hash\n    function addInvestmentAccount(uint256 _investmentNumber, string memory _name) public returns(bytes32) {\n        require(_investmentNumber != 0, 'The investment account number must be set');\n        require(bytes(_name).length != 0, 'The name of the investment account must be set');\n\n        checkAndCreateUser();\n        uint256 ein = IdentityRegistryInterface(identityRegistry).getEIN(msg.sender);\n        bytes32 encryptedInvestment = keccak256(abi.encodePacked(ein, _investmentNumber, _name));\n        userByEin[ein].encryptedInvestments.push(encryptedInvestment);\n        return encryptedInvestment;\n    }\n\n    /// @notice To delete an account\n    function removeAccount() public {\n        uint256 ein = IdentityRegistryInterface(identityRegistry).getEIN(msg.sender);\n        require(userByEin[ein].einOwner == ein, 'Only the EIN owner of the account can remove the account');\n\n        delete userByEin[ein];\n        for(uint256 i = 0; i < users.length; i++) {\n            if(users[i].einOwner == ein) {\n                User memory lastElement = users[users.length - 1];\n                users[i] = lastElement;\n                users.length--;\n            }\n        }\n    }\n\n    /// @notice To create a new user if he doesn't have an account yet using his EIN identifier\n    function checkAndCreateUser() internal {\n        uint256 ein = IdentityRegistryInterface(identityRegistry).getEIN(msg.sender);\n\n        // If we can't find the user, create a new one\n        if(userByEin[ein].owner == address(0)) {\n            bytes32[] memory emptyArray = new bytes32[](0);\n            User memory newUser = User(ein, msg.sender, emptyArray, emptyArray, emptyArray);\n            users.push(newUser);\n            userByEin[ein] = newUser;\n        }\n    }\n\n    /// @notice To verify if the card is valid and get the parameters\n    /// @param _encryptedCard The encrypted bytes of the card with all the parameters\n    /// @param _name The name of the card\n    /// @param _cardNumber The number of the card\n    /// @param _expiry The expiry of the card\n    /// @param _cvv The cvv of the card\n    /// @return Returns true if the parameters are valid, otherwise returns false\n    function checkCard(bytes32 _encryptedCard, string memory _name, uint256 _cardNumber, uint256 _expiry, uint256 _cvv) public view returns(bool) {\n        uint256 ein = IdentityRegistryInterface(identityRegistry).getEIN(msg.sender);\n        bytes32 verificationEncryptedCard = keccak256(abi.encodePacked(ein, _name, _cardNumber, _expiry, _cvv));\n\n        if(_encryptedCard == verificationEncryptedCard) return true;\n        else return false;\n    }\n\n    /// @notice To verify if a bank details are valid and get those values from the parameters\n    /// @param _encryptedBank The bytes32 encrypted bank hash\n    /// @param _name The name of the bank used in the encryption process\n    /// @param _bankNumber The number of the bank used in the encryption process\n    /// @return Returns true if the parameters are valid or false if the bank has not been added to this EIN user\n    function checkBank(bytes32 _encryptedBank, string memory _name, uint256 _bankNumber) public view returns(bool) {\n        uint256 ein = IdentityRegistryInterface(identityRegistry).getEIN(msg.sender);\n        bytes32 verificationEncryptedBank = keccak256(abi.encodePacked(ein, _bankNumber, _name));\n\n        if(_encryptedBank == verificationEncryptedBank) return true;\n        else return false;\n    }\n\n    /// @notice To verify the investment details and get those values from the parameters\n    /// @param _encryptedInvestment The encrypted investment hash\n    /// @param _investmentNumber The investment account number\n    /// @param _name The name of the encrypted investment account used in the encryption process\n    /// @return bool Returns true if the parameters are valid and have been the used in the encryption process or false if they are not\n    function checkInvestment(bytes32 _encryptedInvestment, uint256 _investmentNumber, string memory _name) public view returns(bool) {\n        uint256 ein = IdentityRegistryInterface(identityRegistry).getEIN(msg.sender);\n        bytes32 verificationEncryptedInvestment = keccak256(abi.encodePacked(ein, _investmentNumber, _name));\n\n        if(_encryptedInvestment == verificationEncryptedInvestment) return true;\n        else return false;\n    }\n\n    /// @notice To get the user data\n    /// @return Returns the EIN, address owner, array of card ids, array of bank ids and array of investment ids\n    function getUserData() public view returns(uint256, address, bytes32[] memory, bytes32[] memory, bytes32[] memory) {\n        uint256 ein = IdentityRegistryInterface(identityRegistry).getEIN(msg.sender);\n        User memory u = userByEin[ein];\n\n        return (u.einOwner, u.owner, u.encryptedCards, u.encryptedBanks, u.encryptedInvestments);\n    }\n}\n",
  "sourcePath": "/Users/merunas/Desktop/hydro-finance/contracts/HydroFinance.sol",
  "compiler": {
    "name": "solc",
    "version": "0.5.4+commit.9549d8ff.Emscripten.clang"
  },
  "schemaVersion": "3.0.0-beta.2",
  "updatedAt": "2019-06-04T10:16:28.276Z",
  "devdoc": {
    "author": "Merunas Grincalaitis <merunasgrincalaitis@gmail.com>",
    "methods": {
      "addBank(uint256,string)": {
        "params": {
          "_bankNumber": "The number of the bank to add",
          "_name": "The name of the bank"
        },
        "return": "Returns the encrypted bank bytes32"
      },
      "addCard(uint256,uint256,string,uint256)": {
        "params": {
          "_cardNumber": "The number of the credit or debit card to add to your account",
          "_cvv": "The 3 or 4 digit code for verifying the card",
          "_expiry": "When the card expires in timestamp",
          "_name": "The name of the card"
        },
        "return": "bytes32 Returns the encrypted card bytes32"
      },
      "addInvestmentAccount(uint256,string)": {
        "params": {
          "_investmentNumber": "The number of the investment account that you want to create",
          "_name": "The name of the investment account"
        },
        "return": "bytes32 Returns the encrypted investment account hash"
      },
      "checkBank(bytes32,string,uint256)": {
        "params": {
          "_bankNumber": "The number of the bank used in the encryption process",
          "_encryptedBank": "The bytes32 encrypted bank hash",
          "_name": "The name of the bank used in the encryption process"
        },
        "return": "Returns true if the parameters are valid or false if the bank has not been added to this EIN user"
      },
      "checkCard(bytes32,string,uint256,uint256,uint256)": {
        "params": {
          "_cardNumber": "The number of the card",
          "_cvv": "The cvv of the card",
          "_encryptedCard": "The encrypted bytes of the card with all the parameters",
          "_expiry": "The expiry of the card",
          "_name": "The name of the card"
        },
        "return": "Returns true if the parameters are valid, otherwise returns false"
      },
      "checkInvestment(bytes32,uint256,string)": {
        "params": {
          "_encryptedInvestment": "The encrypted investment hash",
          "_investmentNumber": "The investment account number",
          "_name": "The name of the encrypted investment account used in the encryption process"
        },
        "return": "bool Returns true if the parameters are valid and have been the used in the encryption process or false if they are not"
      },
      "constructor": {
        "params": {
          "_identityRegistry": "The address of the Identity Registry contract"
        }
      },
      "getUserData()": {
        "return": "Returns the EIN, address owner, array of card ids, array of bank ids and array of investment ids"
      }
    }
  },
  "userdoc": {
    "methods": {
      "addBank(uint256,string)": {
        "notice": "To add a new bank"
      },
      "addCard(uint256,uint256,string,uint256)": {
        "notice": "To add a new credit card to your account. All function will be encrypted the moment the data is added"
      },
      "addInvestmentAccount(uint256,string)": {
        "notice": "To create an investment account for your user"
      },
      "checkBank(bytes32,string,uint256)": {
        "notice": "To verify if a bank details are valid and get those values from the parameters"
      },
      "checkCard(bytes32,string,uint256,uint256,uint256)": {
        "notice": "To verify if the card is valid and get the parameters"
      },
      "checkInvestment(bytes32,uint256,string)": {
        "notice": "To verify the investment details and get those values from the parameters"
      },
      "constructor": "To setup the address of the identity registry to use for this contract",
      "getUserData()": {
        "notice": "To get the user data"
      },
      "removeAccount()": {
        "notice": "To delete an account"
      }
    },
    "notice": "The Hydrogen Finance contract for managing financial accounts such as credit cards, banks and invement accounts on-chain using encryption technology"
  }
}